:020000000C945E
:1000020075000C9400000C9400000C9400000C94F9
:1000120000000C9400000C9400000C9400000C945E
:1000220000000C9400000C9400000C9400000C944E
:1000320000000C9400000C9400000C9400000C943E
:1000420000000C9400000C9400000C9400000C942E
:1000520000000C9400000C9400000C9400000C941E
:1000620000000C9400001027E80364000A0001005D
:100072000010000110000100332D4C454420427550
:1000820066666572202850696E7320322D362920EB
:100092005265616479210D0A00456E7465722033E0
:1000A20020626974732028302F3129202B20456E5D
:1000B2007465723A0D0A004C454473207365743AB4
:1000C200202564256425640D0A000D0A42756666C2
:1000D20065722055706461746564210D0A0080C0E8
:1000E20002000003E0000000F894EE27EFBBF1E00D
:1000F200F5BFE5BF8DE0A2E0BB27ED938A95E9F756
:1001020080E098E0A0E0B1E0ED930197E9F7E2EE3C
:10011200F0E085919591009761F0A591B5910590D8
:100122001590BF01F00105900D920197E1F7FB01D7
:10013200F0CFE0E0EEBBEFEFEDBFE8E0EEBFC0E0F6
:10014200D3E00C94A4002397E0E0E883E983EA83F8
:1001520010E0EBB1E37E3E2FEAB1EC61EAB9E0E0F8
:10016200EBB9E093C500E7E6E093C400E8E1E09371
:10017200C100E6E0E093C200EAE7F0E0FA93EA9316
:1001820080E0E3D12296EBE9F0E0FA93EA9380E093
:10019200DCD12296E091C000E07809F445C00091DC
:1001A200C6000A3011F00D3079F5E881E03009F02F
:1001B2003460E981E03009F03860EA81E03009F02A
:1001C20030613BB9E9EBF0E0FA93EA93EA81FF2769
:1001D200662777270E94FE02EF81FF27662777278F
:1001E2000E94FE02EC85FF27662777270E94FE0207
:1001F2008CE0ABD12E96ECECF0E0FA93EA9380E03F
:10020200A4D1229610E010C0133070F4E12FF0E078
:10021200DE01AE0FBF1F013311F4E1E001C0E0E0E7
:10022200EC931F5FA02F06D0AAE0B0E00E94E40288
:10023200B1CFFFCFAA93E091C000E072E1F3E88171
:10024200E093C60021960895BA93AA93AA81F2DF99
:10025200A881B981ED91FD913196FE93EE9323969B
:100262000895BA93AA9326970E94030310E0AC85DF
:10027200BD85E0E0F0E0ED93FC93EA89FB893196DD
:10028200EA8BFB8B3197E4912E2FE03009F455C1B4
:10029200E12FE03059F4253211F411E006C02A931F
:1002A200AD85BE85EF85F889099546C1E130C9F46F
:1002B200253239F42A93AD85BE85EF85F8890995F3
:1002C2003AC112E040E000E02D3211F401E034C105
:1002D2002B3211F44BE230C1203211F440E22CC136
:1002E20002C0E23039F450E013E0203311F4006828
:1002F20023C103C0E33009F01FC1203310F02A33B9
:1003020008F007C0AAE05A9F502DE22FE0535E0F7B
:1003120013C1E22FE33669F4E889F9893497E88B4F
:10032200F98BA481AA93AD85BE85EF85F8890995DD
:1003320002C1E33791F4E889F9893497E88BF98BA4
:10034200A889B98914960E94F602EE83FF83AE81D2
:10035200BF810E94CB021E2F14C0E037B1F4E8899E
:10036200F9893497E88BF98BA889B98914960E9488
:10037200F602EE83FF83AE81BF810E94D7021E2F59
:10038200086002600F7730E042C0E43611F0E936CF
:1003920011F4046002C0E53731F4E8E6F0E0EE83E0
:1003A200FF8315E00CC0E83511F4086003C0E8379C
:1003B20009F0C1C0E2E7F0E0EE83FF8314E002FF40
:1003C2001AC0E889F9893497E88BF98BA889B98929
:1003D20014960E94F602EA87FB87AB85AA232AF4C9
:1003E2000E94F202EA87FB874DE2403011F01F5F64
:1003F20001C00B7F0CC0E889F9893497E88BF98B2F
:10040200A889B98914960E94F602EA87FB8700FD43
:1004120015C0151798F407FF08C002FF04C00B7F30
:10042200242F115001C020E301C020E22A93AD85A0
:10043200BE85EF85F88909955150EBCF312F01FF29
:100442001BC03030C1F003FF06C0EE81FF81259151
:10045200EE83FF8305C0AE81BF812D91AE83BF8342
:100462002A93AD85BE85EF85F8890995503009F04C
:1004720051503150E6CF52C020E3EE81FF810E94FD
:10048200FA02E887F987EE81FF813296EE83FF83D5
:10049200E885F985AA85BB85AE17BF0750F02F5FA7
:1004A200A885B985EA85FB85EA1BFB0BEA87FB87F2
:1004B200EFCF2A3328F003FF02C0295F01C0295D74
:1004C20004FD1DC0213320F4A885B985119709F4D4
:1004D20009C0531710F000FF01C01AC020E207FF45
:1004E2000EC020E3006102FF0AC00B7F4A93AD8574
:1004F200BE85EF85F8890995503009F051502A934D
:10050200AD85BE85EF85F8890995503009F05150C7
:100512003150A885B985129708F0AECF00FF0BC005
:10052200503049F05150E0E2EA93AD85BE85EF8547
:10053200F8890995F5CF10E0A0CEAC85BD850E9463
:10054200F6020E940A0364960895FF92F82E2697F7
:100552001A930A93DE0114960E94EE028D01E0E0E6
:10056200EC83ED83EE83EF83DE0118960E94EE02A8
:100572000E94F602FA93EA931A930A93E5E2F1E0F3
:10058200FA93EA93DE0118966CDE198108812896A7
:10059200FF900895BA93AA93A991B991EE27FF27E4
:1005A2006D91662311F03196FBCF0895BA93AA9309
:1005B200AA27BB27E991F9910590002011F0119625
:1005C200FBCFFD010895109639F080EA9FE0019774
:1005D200F1F7A8951197C9F708950024AF0DB01D42
:1005E2000895F195E195F0400895ED91FC911197F0
:1005F20008950590F491E02D08957A936A93FA9301
:10060200EA9308955A934A933A932A931A930A9330
:1006120008955D814C813B812A8119810881089569
:00000001FF
